{
  "_format": "hh-sol-artifact-1",
  "contractName": "KudoTaco",
  "sourceName": "contracts/KudoTaco.sol",
  "abi": [
    {
      "inputs": [
        {
          "internalType": "address",
          "name": "_defaultAdmin",
          "type": "address"
        },
        {
          "internalType": "string",
          "name": "_name",
          "type": "string"
        },
        {
          "internalType": "string",
          "name": "_symbol",
          "type": "string"
        }
      ],
      "stateMutability": "nonpayable",
      "type": "constructor"
    },
    {
      "anonymous": false,
      "inputs": [
        {
          "indexed": true,
          "internalType": "address",
          "name": "owner",
          "type": "address"
        },
        {
          "indexed": true,
          "internalType": "address",
          "name": "spender",
          "type": "address"
        },
        {
          "indexed": false,
          "internalType": "uint256",
          "name": "value",
          "type": "uint256"
        }
      ],
      "name": "Approval",
      "type": "event"
    },
    {
      "anonymous": false,
      "inputs": [
        {
          "indexed": false,
          "internalType": "string",
          "name": "prevURI",
          "type": "string"
        },
        {
          "indexed": false,
          "internalType": "string",
          "name": "newURI",
          "type": "string"
        }
      ],
      "name": "ContractURIUpdated",
      "type": "event"
    },
    {
      "anonymous": false,
      "inputs": [
        {
          "indexed": true,
          "internalType": "address",
          "name": "from",
          "type": "address"
        },
        {
          "indexed": true,
          "internalType": "address",
          "name": "to",
          "type": "address"
        },
        {
          "indexed": false,
          "internalType": "uint256",
          "name": "amount",
          "type": "uint256"
        }
      ],
      "name": "KudosGiven",
      "type": "event"
    },
    {
      "anonymous": false,
      "inputs": [
        {
          "indexed": true,
          "internalType": "address",
          "name": "prevOwner",
          "type": "address"
        },
        {
          "indexed": true,
          "internalType": "address",
          "name": "newOwner",
          "type": "address"
        }
      ],
      "name": "OwnerUpdated",
      "type": "event"
    },
    {
      "anonymous": false,
      "inputs": [
        {
          "indexed": true,
          "internalType": "bytes32",
          "name": "role",
          "type": "bytes32"
        },
        {
          "indexed": true,
          "internalType": "bytes32",
          "name": "previousAdminRole",
          "type": "bytes32"
        },
        {
          "indexed": true,
          "internalType": "bytes32",
          "name": "newAdminRole",
          "type": "bytes32"
        }
      ],
      "name": "RoleAdminChanged",
      "type": "event"
    },
    {
      "anonymous": false,
      "inputs": [
        {
          "indexed": true,
          "internalType": "bytes32",
          "name": "role",
          "type": "bytes32"
        },
        {
          "indexed": true,
          "internalType": "address",
          "name": "account",
          "type": "address"
        },
        {
          "indexed": true,
          "internalType": "address",
          "name": "sender",
          "type": "address"
        }
      ],
      "name": "RoleGranted",
      "type": "event"
    },
    {
      "anonymous": false,
      "inputs": [
        {
          "indexed": true,
          "internalType": "bytes32",
          "name": "role",
          "type": "bytes32"
        },
        {
          "indexed": true,
          "internalType": "address",
          "name": "account",
          "type": "address"
        },
        {
          "indexed": true,
          "internalType": "address",
          "name": "sender",
          "type": "address"
        }
      ],
      "name": "RoleRevoked",
      "type": "event"
    },
    {
      "anonymous": false,
      "inputs": [
        {
          "indexed": true,
          "internalType": "address",
          "name": "mintedTo",
          "type": "address"
        },
        {
          "indexed": false,
          "internalType": "uint256",
          "name": "quantityMinted",
          "type": "uint256"
        }
      ],
      "name": "TokensMinted",
      "type": "event"
    },
    {
      "anonymous": false,
      "inputs": [
        {
          "indexed": true,
          "internalType": "address",
          "name": "from",
          "type": "address"
        },
        {
          "indexed": true,
          "internalType": "address",
          "name": "to",
          "type": "address"
        },
        {
          "indexed": false,
          "internalType": "uint256",
          "name": "value",
          "type": "uint256"
        }
      ],
      "name": "Transfer",
      "type": "event"
    },
    {
      "inputs": [],
      "name": "DEFAULT_ADMIN_ROLE",
      "outputs": [
        {
          "internalType": "bytes32",
          "name": "",
          "type": "bytes32"
        }
      ],
      "stateMutability": "view",
      "type": "function"
    },
    {
      "inputs": [],
      "name": "DOMAIN_SEPARATOR",
      "outputs": [
        {
          "internalType": "bytes32",
          "name": "",
          "type": "bytes32"
        }
      ],
      "stateMutability": "view",
      "type": "function"
    },
    {
      "inputs": [],
      "name": "KUDO_GIVER_ROLE",
      "outputs": [
        {
          "internalType": "bytes32",
          "name": "",
          "type": "bytes32"
        }
      ],
      "stateMutability": "view",
      "type": "function"
    },
    {
      "inputs": [
        {
          "internalType": "address",
          "name": "owner",
          "type": "address"
        },
        {
          "internalType": "address",
          "name": "spender",
          "type": "address"
        }
      ],
      "name": "allowance",
      "outputs": [
        {
          "internalType": "uint256",
          "name": "",
          "type": "uint256"
        }
      ],
      "stateMutability": "view",
      "type": "function"
    },
    {
      "inputs": [
        {
          "internalType": "address",
          "name": "spender",
          "type": "address"
        },
        {
          "internalType": "uint256",
          "name": "amount",
          "type": "uint256"
        }
      ],
      "name": "approve",
      "outputs": [
        {
          "internalType": "bool",
          "name": "",
          "type": "bool"
        }
      ],
      "stateMutability": "nonpayable",
      "type": "function"
    },
    {
      "inputs": [
        {
          "internalType": "address",
          "name": "account",
          "type": "address"
        }
      ],
      "name": "balanceOf",
      "outputs": [
        {
          "internalType": "uint256",
          "name": "",
          "type": "uint256"
        }
      ],
      "stateMutability": "view",
      "type": "function"
    },
    {
      "inputs": [
        {
          "internalType": "uint256",
          "name": "_amount",
          "type": "uint256"
        }
      ],
      "name": "burn",
      "outputs": [],
      "stateMutability": "nonpayable",
      "type": "function"
    },
    {
      "inputs": [
        {
          "internalType": "address",
          "name": "_account",
          "type": "address"
        },
        {
          "internalType": "uint256",
          "name": "_amount",
          "type": "uint256"
        }
      ],
      "name": "burnFrom",
      "outputs": [],
      "stateMutability": "nonpayable",
      "type": "function"
    },
    {
      "inputs": [],
      "name": "contractURI",
      "outputs": [
        {
          "internalType": "string",
          "name": "",
          "type": "string"
        }
      ],
      "stateMutability": "view",
      "type": "function"
    },
    {
      "inputs": [
        {
          "internalType": "address",
          "name": "",
          "type": "address"
        }
      ],
      "name": "dailyMintedAmount",
      "outputs": [
        {
          "internalType": "uint256",
          "name": "",
          "type": "uint256"
        }
      ],
      "stateMutability": "view",
      "type": "function"
    },
    {
      "inputs": [],
      "name": "decimals",
      "outputs": [
        {
          "internalType": "uint8",
          "name": "",
          "type": "uint8"
        }
      ],
      "stateMutability": "view",
      "type": "function"
    },
    {
      "inputs": [
        {
          "internalType": "address",
          "name": "spender",
          "type": "address"
        },
        {
          "internalType": "uint256",
          "name": "subtractedValue",
          "type": "uint256"
        }
      ],
      "name": "decreaseAllowance",
      "outputs": [
        {
          "internalType": "bool",
          "name": "",
          "type": "bool"
        }
      ],
      "stateMutability": "nonpayable",
      "type": "function"
    },
    {
      "inputs": [
        {
          "internalType": "bytes32",
          "name": "role",
          "type": "bytes32"
        }
      ],
      "name": "getRoleAdmin",
      "outputs": [
        {
          "internalType": "bytes32",
          "name": "",
          "type": "bytes32"
        }
      ],
      "stateMutability": "view",
      "type": "function"
    },
    {
      "inputs": [
        {
          "internalType": "bytes32",
          "name": "role",
          "type": "bytes32"
        },
        {
          "internalType": "uint256",
          "name": "index",
          "type": "uint256"
        }
      ],
      "name": "getRoleMember",
      "outputs": [
        {
          "internalType": "address",
          "name": "member",
          "type": "address"
        }
      ],
      "stateMutability": "view",
      "type": "function"
    },
    {
      "inputs": [
        {
          "internalType": "bytes32",
          "name": "role",
          "type": "bytes32"
        }
      ],
      "name": "getRoleMemberCount",
      "outputs": [
        {
          "internalType": "uint256",
          "name": "count",
          "type": "uint256"
        }
      ],
      "stateMutability": "view",
      "type": "function"
    },
    {
      "inputs": [
        {
          "internalType": "address",
          "name": "_to",
          "type": "address"
        },
        {
          "internalType": "uint256",
          "name": "_amount",
          "type": "uint256"
        }
      ],
      "name": "giveKudos",
      "outputs": [],
      "stateMutability": "nonpayable",
      "type": "function"
    },
    {
      "inputs": [
        {
          "internalType": "address[]",
          "name": "_to",
          "type": "address[]"
        },
        {
          "internalType": "uint256[]",
          "name": "_amount",
          "type": "uint256[]"
        }
      ],
      "name": "giveMultipleKudos",
      "outputs": [],
      "stateMutability": "nonpayable",
      "type": "function"
    },
    {
      "inputs": [
        {
          "internalType": "bytes32",
          "name": "role",
          "type": "bytes32"
        },
        {
          "internalType": "address",
          "name": "account",
          "type": "address"
        }
      ],
      "name": "grantRole",
      "outputs": [],
      "stateMutability": "nonpayable",
      "type": "function"
    },
    {
      "inputs": [
        {
          "internalType": "bytes32",
          "name": "role",
          "type": "bytes32"
        },
        {
          "internalType": "address",
          "name": "account",
          "type": "address"
        }
      ],
      "name": "hasRole",
      "outputs": [
        {
          "internalType": "bool",
          "name": "",
          "type": "bool"
        }
      ],
      "stateMutability": "view",
      "type": "function"
    },
    {
      "inputs": [
        {
          "internalType": "bytes32",
          "name": "role",
          "type": "bytes32"
        },
        {
          "internalType": "address",
          "name": "account",
          "type": "address"
        }
      ],
      "name": "hasRoleWithSwitch",
      "outputs": [
        {
          "internalType": "bool",
          "name": "",
          "type": "bool"
        }
      ],
      "stateMutability": "view",
      "type": "function"
    },
    {
      "inputs": [
        {
          "internalType": "address",
          "name": "spender",
          "type": "address"
        },
        {
          "internalType": "uint256",
          "name": "addedValue",
          "type": "uint256"
        }
      ],
      "name": "increaseAllowance",
      "outputs": [
        {
          "internalType": "bool",
          "name": "",
          "type": "bool"
        }
      ],
      "stateMutability": "nonpayable",
      "type": "function"
    },
    {
      "inputs": [
        {
          "internalType": "address",
          "name": "_from",
          "type": "address"
        }
      ],
      "name": "kudosRemainingToday",
      "outputs": [
        {
          "internalType": "uint256",
          "name": "",
          "type": "uint256"
        }
      ],
      "stateMutability": "view",
      "type": "function"
    },
    {
      "inputs": [
        {
          "internalType": "address",
          "name": "_to",
          "type": "address"
        },
        {
          "internalType": "uint256",
          "name": "_amount",
          "type": "uint256"
        }
      ],
      "name": "mintTo",
      "outputs": [],
      "stateMutability": "nonpayable",
      "type": "function"
    },
    {
      "inputs": [
        {
          "internalType": "bytes[]",
          "name": "data",
          "type": "bytes[]"
        }
      ],
      "name": "multicall",
      "outputs": [
        {
          "internalType": "bytes[]",
          "name": "results",
          "type": "bytes[]"
        }
      ],
      "stateMutability": "nonpayable",
      "type": "function"
    },
    {
      "inputs": [],
      "name": "name",
      "outputs": [
        {
          "internalType": "string",
          "name": "",
          "type": "string"
        }
      ],
      "stateMutability": "view",
      "type": "function"
    },
    {
      "inputs": [
        {
          "internalType": "address",
          "name": "owner",
          "type": "address"
        }
      ],
      "name": "nonces",
      "outputs": [
        {
          "internalType": "uint256",
          "name": "",
          "type": "uint256"
        }
      ],
      "stateMutability": "view",
      "type": "function"
    },
    {
      "inputs": [],
      "name": "owner",
      "outputs": [
        {
          "internalType": "address",
          "name": "",
          "type": "address"
        }
      ],
      "stateMutability": "view",
      "type": "function"
    },
    {
      "inputs": [
        {
          "internalType": "address",
          "name": "owner",
          "type": "address"
        },
        {
          "internalType": "address",
          "name": "spender",
          "type": "address"
        },
        {
          "internalType": "uint256",
          "name": "value",
          "type": "uint256"
        },
        {
          "internalType": "uint256",
          "name": "deadline",
          "type": "uint256"
        },
        {
          "internalType": "uint8",
          "name": "v",
          "type": "uint8"
        },
        {
          "internalType": "bytes32",
          "name": "r",
          "type": "bytes32"
        },
        {
          "internalType": "bytes32",
          "name": "s",
          "type": "bytes32"
        }
      ],
      "name": "permit",
      "outputs": [],
      "stateMutability": "nonpayable",
      "type": "function"
    },
    {
      "inputs": [
        {
          "internalType": "bytes32",
          "name": "role",
          "type": "bytes32"
        },
        {
          "internalType": "address",
          "name": "account",
          "type": "address"
        }
      ],
      "name": "renounceRole",
      "outputs": [],
      "stateMutability": "nonpayable",
      "type": "function"
    },
    {
      "inputs": [
        {
          "internalType": "bytes32",
          "name": "role",
          "type": "bytes32"
        },
        {
          "internalType": "address",
          "name": "account",
          "type": "address"
        }
      ],
      "name": "revokeRole",
      "outputs": [],
      "stateMutability": "nonpayable",
      "type": "function"
    },
    {
      "inputs": [
        {
          "internalType": "string",
          "name": "_uri",
          "type": "string"
        }
      ],
      "name": "setContractURI",
      "outputs": [],
      "stateMutability": "nonpayable",
      "type": "function"
    },
    {
      "inputs": [
        {
          "internalType": "address",
          "name": "_newOwner",
          "type": "address"
        }
      ],
      "name": "setOwner",
      "outputs": [],
      "stateMutability": "nonpayable",
      "type": "function"
    },
    {
      "inputs": [],
      "name": "symbol",
      "outputs": [
        {
          "internalType": "string",
          "name": "",
          "type": "string"
        }
      ],
      "stateMutability": "view",
      "type": "function"
    },
    {
      "inputs": [],
      "name": "totalSupply",
      "outputs": [
        {
          "internalType": "uint256",
          "name": "",
          "type": "uint256"
        }
      ],
      "stateMutability": "view",
      "type": "function"
    },
    {
      "inputs": [
        {
          "internalType": "address",
          "name": "to",
          "type": "address"
        },
        {
          "internalType": "uint256",
          "name": "amount",
          "type": "uint256"
        }
      ],
      "name": "transfer",
      "outputs": [
        {
          "internalType": "bool",
          "name": "",
          "type": "bool"
        }
      ],
      "stateMutability": "nonpayable",
      "type": "function"
    },
    {
      "inputs": [
        {
          "internalType": "address",
          "name": "from",
          "type": "address"
        },
        {
          "internalType": "address",
          "name": "to",
          "type": "address"
        },
        {
          "internalType": "uint256",
          "name": "amount",
          "type": "uint256"
        }
      ],
      "name": "transferFrom",
      "outputs": [
        {
          "internalType": "bool",
          "name": "",
          "type": "bool"
        }
      ],
      "stateMutability": "nonpayable",
      "type": "function"
    }
  ],
  "bytecode": "0x6101006040527f6e71edae12b1b97f4d1f60370fef10105fa2faae0126114a169c64845d6126c960e0908152503480156200003957600080fd5b5060405162005ed738038062005ed783398181016040528101906200005f919062000729565b82828281818181816005908162000077919062000a0e565b50806006908162000089919062000a0e565b5050504660a081815250503073ffffffffffffffffffffffffffffffffffffffff1660c08173ffffffffffffffffffffffffffffffffffffffff1681525050620000d86200014560201b60201c565b608081815250505050620000f283620001d360201b60201c565b5050506200010a6000801b846200029960201b60201c565b6200013c7fda8ae4b31d9153fc0c827a5a44d04929383bdf370a36767c4163e057ba0c51b2846200029960201b60201c565b50505062000bf9565b60007f8b73c3c69bb8fe3d512ecc4cf759cc79239f7b179b0ffacaa9a75d522b39400f62000178620002c160201b60201c565b805190602001207fc89efdaa54c0f20c7adf612882df0950f5a951637e0307cdcb4c672f298b8bc64630604051602001620001b895949392919062000b32565b60405160208183030381529060405280519060200120905090565b6000600160009054906101000a900473ffffffffffffffffffffffffffffffffffffffff16905081600160006101000a81548173ffffffffffffffffffffffffffffffffffffffff021916908373ffffffffffffffffffffffffffffffffffffffff1602179055508173ffffffffffffffffffffffffffffffffffffffff168173ffffffffffffffffffffffffffffffffffffffff167f8292fce18fa69edf4db7b94ea2e58241df0ae57f97e0a6c9b29067028bf92d7660405160405180910390a35050565b620002ab82826200035b60201b60201c565b620002bd82826200042360201b60201c565b5050565b606060058054620002d290620007fd565b80601f01602080910402602001604051908101604052809291908181526020018280546200030090620007fd565b8015620003515780601f10620003255761010080835404028352916020019162000351565b820191906000526020600020905b8154815290600101906020018083116200033357829003601f168201915b5050505050905090565b60016008600084815260200190815260200160002060008373ffffffffffffffffffffffffffffffffffffffff1673ffffffffffffffffffffffffffffffffffffffff16815260200190815260200160002060006101000a81548160ff0219169083151502179055503373ffffffffffffffffffffffffffffffffffffffff168173ffffffffffffffffffffffffffffffffffffffff16837f2f8788117e7eff1d82e926ec794901d17c78024a50270940304540a733656f0d60405160405180910390a45050565b6000600a60008481526020019081526020016000206000015490506001600a6000858152602001908152602001600020600001600082825462000467919062000bbe565b9250508190555081600a6000858152602001908152602001600020600101600083815260200190815260200160002060006101000a81548173ffffffffffffffffffffffffffffffffffffffff021916908373ffffffffffffffffffffffffffffffffffffffff16021790555080600a600085815260200190815260200160002060020160008473ffffffffffffffffffffffffffffffffffffffff1673ffffffffffffffffffffffffffffffffffffffff16815260200190815260200160002081905550505050565b6000604051905090565b600080fd5b600080fd5b600073ffffffffffffffffffffffffffffffffffffffff82169050919050565b6000620005728262000545565b9050919050565b620005848162000565565b81146200059057600080fd5b50565b600081519050620005a48162000579565b92915050565b600080fd5b600080fd5b6000601f19601f8301169050919050565b7f4e487b7100000000000000000000000000000000000000000000000000000000600052604160045260246000fd5b620005ff82620005b4565b810181811067ffffffffffffffff82111715620006215762000620620005c5565b5b80604052505050565b60006200063662000531565b9050620006448282620005f4565b919050565b600067ffffffffffffffff821115620006675762000666620005c5565b5b6200067282620005b4565b9050602081019050919050565b60005b838110156200069f57808201518184015260208101905062000682565b60008484015250505050565b6000620006c2620006bc8462000649565b6200062a565b905082815260208101848484011115620006e157620006e0620005af565b5b620006ee8482856200067f565b509392505050565b600082601f8301126200070e576200070d620005aa565b5b815162000720848260208601620006ab565b91505092915050565b6000806000606084860312156200074557620007446200053b565b5b6000620007558682870162000593565b935050602084015167ffffffffffffffff81111562000779576200077862000540565b5b6200078786828701620006f6565b925050604084015167ffffffffffffffff811115620007ab57620007aa62000540565b5b620007b986828701620006f6565b9150509250925092565b600081519050919050565b7f4e487b7100000000000000000000000000000000000000000000000000000000600052602260045260246000fd5b600060028204905060018216806200081657607f821691505b6020821081036200082c576200082b620007ce565b5b50919050565b60008190508160005260206000209050919050565b60006020601f8301049050919050565b600082821b905092915050565b600060088302620008967fffffffffffffffffffffffffffffffffffffffffffffffffffffffffffffffff8262000857565b620008a2868362000857565b95508019841693508086168417925050509392505050565b6000819050919050565b6000819050919050565b6000620008ef620008e9620008e384620008ba565b620008c4565b620008ba565b9050919050565b6000819050919050565b6200090b83620008ce565b620009236200091a82620008f6565b84845462000864565b825550505050565b600090565b6200093a6200092b565b6200094781848462000900565b505050565b5b818110156200096f576200096360008262000930565b6001810190506200094d565b5050565b601f821115620009be57620009888162000832565b620009938462000847565b81016020851015620009a3578190505b620009bb620009b28562000847565b8301826200094c565b50505b505050565b600082821c905092915050565b6000620009e360001984600802620009c3565b1980831691505092915050565b6000620009fe8383620009d0565b9150826002028217905092915050565b62000a1982620007c3565b67ffffffffffffffff81111562000a355762000a34620005c5565b5b62000a418254620007fd565b62000a4e82828562000973565b600060209050601f83116001811462000a86576000841562000a71578287015190505b62000a7d8582620009f0565b86555062000aed565b601f19841662000a968662000832565b60005b8281101562000ac05784890151825560018201915060208501945060208101905062000a99565b8683101562000ae0578489015162000adc601f891682620009d0565b8355505b6001600288020188555050505b505050505050565b6000819050919050565b62000b0a8162000af5565b82525050565b62000b1b81620008ba565b82525050565b62000b2c8162000565565b82525050565b600060a08201905062000b49600083018862000aff565b62000b58602083018762000aff565b62000b67604083018662000aff565b62000b76606083018562000b10565b62000b85608083018462000b21565b9695505050505050565b7f4e487b7100000000000000000000000000000000000000000000000000000000600052601160045260246000fd5b600062000bcb82620008ba565b915062000bd883620008ba565b925082820190508082111562000bf35762000bf262000b8f565b5b92915050565b60805160a05160c05160e0516152a462000c3360003960006119ca01526000610d6f01526000610dc501526000610dee01526152a46000f3fe608060405234801561001057600080fd5b506004361061021c5760003560e01c806379cc679011610125578063a32fa5b3116100ad578063ca15c8731161007c578063ca15c873146106ad578063d505accf146106dd578063d547741f146106f9578063dd62ed3e14610715578063e8a3d485146107455761021c565b8063a32fa5b3146105ed578063a457c2d71461061d578063a9059cbb1461064d578063ac9650d81461067d5761021c565b806391d14854116100f457806391d1485414610549578063938e3d7b1461057957806395d89b4114610595578063a217fddf146105b3578063a23ea6e7146105d15761021c565b806379cc6790146104af5780637ecebe00146104cb5780638da5cb5b146104fb5780639010d07c146105195761021c565b80632b25a7e4116101a857806336568abe1161017757806336568abe146103fb578063395093511461041757806342966c6814610447578063449a52f81461046357806370a082311461047f5761021c565b80632b25a7e4146103875780632f2ff15d146103a3578063313ce567146103bf5780633644e515146103dd5761021c565b806318160ddd116101ef57806318160ddd146102bb57806319e4cccf146102d9578063213dd9fa146102f757806323b872dd14610327578063248a9ca3146103575761021c565b806306fdde0314610221578063095ea7b31461023f5780630c6ddd341461026f57806313af40351461029f575b600080fd5b610229610763565b6040516102369190613389565b60405180910390f35b61025960048036038101906102549190613453565b6107f5565b60405161026691906134ae565b60405180910390f35b610289600480360381019061028491906134c9565b610818565b6040516102969190613505565b60405180910390f35b6102b960048036038101906102b491906134c9565b6108df565b005b6102c3610932565b6040516102d09190613505565b60405180910390f35b6102e161093c565b6040516102ee9190613539565b60405180910390f35b610311600480360381019061030c91906134c9565b610960565b60405161031e9190613505565b60405180910390f35b610341600480360381019061033c9190613554565b610978565b60405161034e91906134ae565b60405180910390f35b610371600480360381019061036c91906135d3565b6109a7565b60405161037e9190613539565b60405180910390f35b6103a1600480360381019061039c9190613453565b6109c4565b005b6103bd60048036038101906103b89190613600565b610c99565b005b6103c7610d62565b6040516103d4919061365c565b60405180910390f35b6103e5610d6b565b6040516103f29190613539565b60405180910390f35b61041560048036038101906104109190613600565b610e22565b005b610431600480360381019061042c9190613453565b610e9e565b60405161043e91906134ae565b60405180910390f35b610461600480360381019061045c9190613677565b610f48565b005b61047d60048036038101906104789190613453565b610fa0565b005b610499600480360381019061049491906134c9565b611038565b6040516104a69190613505565b60405180910390f35b6104c960048036038101906104c49190613453565b611081565b005b6104e560048036038101906104e091906134c9565b611152565b6040516104f29190613505565b60405180910390f35b6105036111a2565b60405161051091906136b3565b60405180910390f35b610533600480360381019061052e91906136ce565b6111cc565b60405161054091906136b3565b60405180910390f35b610563600480360381019061055e9190613600565b61137d565b60405161057091906134ae565b60405180910390f35b610593600480360381019061058e9190613843565b6113e5565b005b61059d611438565b6040516105aa9190613389565b60405180910390f35b6105bb6114ca565b6040516105c89190613539565b60405180910390f35b6105eb60048036038101906105e69190613a17565b6114d1565b005b61060760048036038101906106029190613600565b6115a9565b60405161061491906134ae565b60405180910390f35b61063760048036038101906106329190613453565b61167d565b60405161064491906134ae565b60405180910390f35b61066760048036038101906106629190613453565b611767565b60405161067491906134ae565b60405180910390f35b61069760048036038101906106929190613aea565b61178a565b6040516106a49190613c4e565b60405180910390f35b6106c760048036038101906106c291906135d3565b611896565b6040516106d49190613505565b60405180910390f35b6106f760048036038101906106f29190613c9c565b611983565b005b610713600480360381019061070e9190613600565b611acd565b005b61072f600480360381019061072a9190613d3e565b611af8565b60405161073c9190613505565b60405180910390f35b61074d611b7f565b60405161075a9190613389565b60405180910390f35b60606005805461077290613dad565b80601f016020809104026020016040519081016040528092919081815260200182805461079e90613dad565b80156107eb5780601f106107c0576101008083540402835291602001916107eb565b820191906000526020600020905b8154815290600101906020018083116107ce57829003601f168201915b5050505050905090565b600080610800611c0d565b905061080d818585611c15565b600191505092915050565b600080620151804261082a9190613e3c565b905080600b60008573ffffffffffffffffffffffffffffffffffffffff1673ffffffffffffffffffffffffffffffffffffffff168152602001908152602001600020541461088357674563918244f400009150506108da565b600c60008473ffffffffffffffffffffffffffffffffffffffff1673ffffffffffffffffffffffffffffffffffffffff16815260200190815260200160002054674563918244f400006108d69190613e6d565b9150505b919050565b6108e7611dde565b610926576040517f08c379a000000000000000000000000000000000000000000000000000000000815260040161091d90613eed565b60405180910390fd5b61092f81611e1b565b50565b6000600454905090565b7fda8ae4b31d9153fc0c827a5a44d04929383bdf370a36767c4163e057ba0c51b281565b600c6020528060005260406000206000915090505481565b600080610983611c0d565b9050610990858285611ee1565b61099b858585611f6d565b60019150509392505050565b600060096000838152602001908152602001600020549050919050565b7fda8ae4b31d9153fc0c827a5a44d04929383bdf370a36767c4163e057ba0c51b26109ef81336121ef565b60008203610a32576040517f08c379a0000000000000000000000000000000000000000000000000000000008152600401610a2990613f59565b60405180910390fd5b610a3b33610818565b821115610a7d576040517f08c379a0000000000000000000000000000000000000000000000000000000008152600401610a7490613fc5565b60405180910390fd5b3373ffffffffffffffffffffffffffffffffffffffff168373ffffffffffffffffffffffffffffffffffffffff1603610aeb576040517f08c379a0000000000000000000000000000000000000000000000000000000008152600401610ae290614031565b60405180910390fd5b60006201518042610afc9190613e3c565b905080600b60003373ffffffffffffffffffffffffffffffffffffffff1673ffffffffffffffffffffffffffffffffffffffff1681526020019081526020016000205414610bce5780600b60003373ffffffffffffffffffffffffffffffffffffffff1673ffffffffffffffffffffffffffffffffffffffff168152602001908152602001600020819055506000600c60003373ffffffffffffffffffffffffffffffffffffffff1673ffffffffffffffffffffffffffffffffffffffff168152602001908152602001600020819055505b82600c60003373ffffffffffffffffffffffffffffffffffffffff1673ffffffffffffffffffffffffffffffffffffffff1681526020019081526020016000206000828254610c1d9190614051565b92505081905550610c2e84846122e0565b8373ffffffffffffffffffffffffffffffffffffffff163373ffffffffffffffffffffffffffffffffffffffff167fc3fa67ae0fad0e7c1595a82af77a1d82cd888d6949c6f636fc13188292dbb73985604051610c8b9190613505565b60405180910390a350505050565b610cb66009600084815260200190815260200160002054336121ef565b6008600083815260200190815260200160002060008273ffffffffffffffffffffffffffffffffffffffff1673ffffffffffffffffffffffffffffffffffffffff16815260200190815260200160002060009054906101000a900460ff1615610d54576040517f08c379a0000000000000000000000000000000000000000000000000000000008152600401610d4b906140d1565b60405180910390fd5b610d5e8282612440565b5050565b60006012905090565b60007f000000000000000000000000000000000000000000000000000000000000000073ffffffffffffffffffffffffffffffffffffffff163073ffffffffffffffffffffffffffffffffffffffff16148015610de757507f000000000000000000000000000000000000000000000000000000000000000046145b15610e14577f00000000000000000000000000000000000000000000000000000000000000009050610e1f565b610e1c612458565b90505b90565b8073ffffffffffffffffffffffffffffffffffffffff163373ffffffffffffffffffffffffffffffffffffffff1614610e90576040517f08c379a0000000000000000000000000000000000000000000000000000000008152600401610e879061413d565b60405180910390fd5b610e9a82826124dc565b5050565b600080610ea9611c0d565b9050610f3d818585600360008673ffffffffffffffffffffffffffffffffffffffff1673ffffffffffffffffffffffffffffffffffffffff16815260200190815260200160002060008973ffffffffffffffffffffffffffffffffffffffff1673ffffffffffffffffffffffffffffffffffffffff16815260200190815260200160002054610f389190614051565b611c15565b600191505092915050565b80610f5233611038565b1015610f93576040517f08c379a0000000000000000000000000000000000000000000000000000000008152600401610f8a906141a9565b60405180910390fd5b610f9d33826124f4565b50565b610fa86126cc565b610fe7576040517f08c379a0000000000000000000000000000000000000000000000000000000008152600401610fde90614215565b60405180910390fd5b6000810361102a576040517f08c379a000000000000000000000000000000000000000000000000000000000815260040161102190613f59565b60405180910390fd5b61103482826122e0565b5050565b6000600260008373ffffffffffffffffffffffffffffffffffffffff1673ffffffffffffffffffffffffffffffffffffffff168152602001908152602001600020549050919050565b611089612709565b6110c8576040517f08c379a00000000000000000000000000000000000000000000000000000000081526004016110bf90614281565b60405180910390fd5b806110d283611038565b1015611113576040517f08c379a000000000000000000000000000000000000000000000000000000000815260040161110a906141a9565b60405180910390fd5b6000816111208433611af8565b61112a9190613e6d565b905061113883336000611c15565b611143833383611c15565b61114d83836124f4565b505050565b600061119b600760008473ffffffffffffffffffffffffffffffffffffffff1673ffffffffffffffffffffffffffffffffffffffff168152602001908152602001600020612746565b9050919050565b6000600160009054906101000a900473ffffffffffffffffffffffffffffffffffffffff16905090565b600080600a6000858152602001908152602001600020600001549050600080600090505b8281101561137357600073ffffffffffffffffffffffffffffffffffffffff16600a6000888152602001908152602001600020600101600083815260200190815260200160002060009054906101000a900473ffffffffffffffffffffffffffffffffffffffff1673ffffffffffffffffffffffffffffffffffffffff16146112e0578482036112cc57600a6000878152602001908152602001600020600101600082815260200190815260200160002060009054906101000a900473ffffffffffffffffffffffffffffffffffffffff169350505050611377565b6001826112d99190614051565b915061135f565b6112eb86600061137d565b80156113495750600a600087815260200190815260200160002060020160008073ffffffffffffffffffffffffffffffffffffffff1673ffffffffffffffffffffffffffffffffffffffff1681526020019081526020016000205481145b1561135e5760018261135b9190614051565b91505b5b60018161136c9190614051565b90506111f0565b5050505b92915050565b60006008600084815260200190815260200160002060008373ffffffffffffffffffffffffffffffffffffffff1673ffffffffffffffffffffffffffffffffffffffff16815260200190815260200160002060009054906101000a900460ff16905092915050565b6113ed612754565b61142c576040517f08c379a000000000000000000000000000000000000000000000000000000000815260040161142390613eed565b60405180910390fd5b61143581612791565b50565b60606006805461144790613dad565b80601f016020809104026020016040519081016040528092919081815260200182805461147390613dad565b80156114c05780601f10611495576101008083540402835291602001916114c0565b820191906000526020600020905b8154815290600101906020018083116114a357829003601f168201915b5050505050905090565b6000801b81565b7fda8ae4b31d9153fc0c827a5a44d04929383bdf370a36767c4163e057ba0c51b26114fc81336121ef565b8151835114611540576040517f08c379a0000000000000000000000000000000000000000000000000000000008152600401611537906142ed565b60405180910390fd5b60008351905060005b818110156115a25761158f8582815181106115675761156661430d565b5b60200260200101518583815181106115825761158161430d565b5b60200260200101516109c4565b808061159a9061433c565b915050611549565b5050505050565b60006008600084815260200190815260200160002060008073ffffffffffffffffffffffffffffffffffffffff1673ffffffffffffffffffffffffffffffffffffffff16815260200190815260200160002060009054906101000a900460ff16611672576008600084815260200190815260200160002060008373ffffffffffffffffffffffffffffffffffffffff1673ffffffffffffffffffffffffffffffffffffffff16815260200190815260200160002060009054906101000a900460ff169050611677565b600190505b92915050565b600080611688611c0d565b90506000600360008373ffffffffffffffffffffffffffffffffffffffff1673ffffffffffffffffffffffffffffffffffffffff16815260200190815260200160002060008673ffffffffffffffffffffffffffffffffffffffff1673ffffffffffffffffffffffffffffffffffffffff1681526020019081526020016000205490508381101561174e576040517f08c379a0000000000000000000000000000000000000000000000000000000008152600401611745906143f6565b60405180910390fd5b61175b8286868403611c15565b60019250505092915050565b600080611772611c0d565b905061177f818585611f6d565b600191505092915050565b60608282905067ffffffffffffffff8111156117a9576117a8613718565b5b6040519080825280602002602001820160405280156117dc57816020015b60608152602001906001900390816117c75790505b50905060005b8383905081101561188f5761185e308585848181106118045761180361430d565b5b90506020028101906118169190614425565b8080601f016020809104026020016040519081016040528093929190818152602001838380828437600081840152601f19601f8201169050808301925050505050505061286c565b8282815181106118715761187061430d565b5b602002602001018190525080806118879061433c565b9150506117e2565b5092915050565b600080600a600084815260200190815260200160002060000154905060005b8181101561195c57600073ffffffffffffffffffffffffffffffffffffffff16600a6000868152602001908152602001600020600101600083815260200190815260200160002060009054906101000a900473ffffffffffffffffffffffffffffffffffffffff1673ffffffffffffffffffffffffffffffffffffffff1614611948576001836119459190614051565b92505b6001816119559190614051565b90506118b5565b5061196883600061137d565b1561197d5760018261197a9190614051565b91505b50919050565b834211156119c6576040517f08c379a00000000000000000000000000000000000000000000000000000000081526004016119bd906144d4565b60405180910390fd5b60007f00000000000000000000000000000000000000000000000000000000000000008888886119f58c612899565b89604051602001611a0b969594939291906144f4565b6040516020818303038152906040528051906020012090506000611a36611a30610d6b565b836128f7565b90506000611a4682878787612938565b90508973ffffffffffffffffffffffffffffffffffffffff168173ffffffffffffffffffffffffffffffffffffffff1614611ab6576040517f08c379a0000000000000000000000000000000000000000000000000000000008152600401611aad906145a1565b60405180910390fd5b611ac18a8a8a611c15565b50505050505050505050565b611aea6009600084815260200190815260200160002054336121ef565b611af482826124dc565b5050565b6000600360008473ffffffffffffffffffffffffffffffffffffffff1673ffffffffffffffffffffffffffffffffffffffff16815260200190815260200160002060008373ffffffffffffffffffffffffffffffffffffffff1673ffffffffffffffffffffffffffffffffffffffff16815260200190815260200160002054905092915050565b60008054611b8c90613dad565b80601f0160208091040260200160405190810160405280929190818152602001828054611bb890613dad565b8015611c055780601f10611bda57610100808354040283529160200191611c05565b820191906000526020600020905b815481529060010190602001808311611be857829003601f168201915b505050505081565b600033905090565b600073ffffffffffffffffffffffffffffffffffffffff168373ffffffffffffffffffffffffffffffffffffffff1603611c84576040517f08c379a0000000000000000000000000000000000000000000000000000000008152600401611c7b90614633565b60405180910390fd5b600073ffffffffffffffffffffffffffffffffffffffff168273ffffffffffffffffffffffffffffffffffffffff1603611cf3576040517f08c379a0000000000000000000000000000000000000000000000000000000008152600401611cea906146c5565b60405180910390fd5b80600360008573ffffffffffffffffffffffffffffffffffffffff1673ffffffffffffffffffffffffffffffffffffffff16815260200190815260200160002060008473ffffffffffffffffffffffffffffffffffffffff1673ffffffffffffffffffffffffffffffffffffffff168152602001908152602001600020819055508173ffffffffffffffffffffffffffffffffffffffff168373ffffffffffffffffffffffffffffffffffffffff167f8c5be1e5ebec7d5bd14f71427d1e84f3dd0314c0f7b2291e5b200ac8c7c3b92583604051611dd19190613505565b60405180910390a3505050565b6000611de86111a2565b73ffffffffffffffffffffffffffffffffffffffff163373ffffffffffffffffffffffffffffffffffffffff1614905090565b6000600160009054906101000a900473ffffffffffffffffffffffffffffffffffffffff16905081600160006101000a81548173ffffffffffffffffffffffffffffffffffffffff021916908373ffffffffffffffffffffffffffffffffffffffff1602179055508173ffffffffffffffffffffffffffffffffffffffff168173ffffffffffffffffffffffffffffffffffffffff167f8292fce18fa69edf4db7b94ea2e58241df0ae57f97e0a6c9b29067028bf92d7660405160405180910390a35050565b6000611eed8484611af8565b90507fffffffffffffffffffffffffffffffffffffffffffffffffffffffffffffffff8114611f675781811015611f59576040517f08c379a0000000000000000000000000000000000000000000000000000000008152600401611f5090614731565b60405180910390fd5b611f668484848403611c15565b5b50505050565b600073ffffffffffffffffffffffffffffffffffffffff168373ffffffffffffffffffffffffffffffffffffffff1603611fdc576040517f08c379a0000000000000000000000000000000000000000000000000000000008152600401611fd3906147c3565b60405180910390fd5b600073ffffffffffffffffffffffffffffffffffffffff168273ffffffffffffffffffffffffffffffffffffffff160361204b576040517f08c379a000000000000000000000000000000000000000000000000000000000815260040161204290614855565b60405180910390fd5b612056838383612963565b6000600260008573ffffffffffffffffffffffffffffffffffffffff1673ffffffffffffffffffffffffffffffffffffffff168152602001908152602001600020549050818110156120dd576040517f08c379a00000000000000000000000000000000000000000000000000000000081526004016120d4906148e7565b60405180910390fd5b818103600260008673ffffffffffffffffffffffffffffffffffffffff1673ffffffffffffffffffffffffffffffffffffffff1681526020019081526020016000208190555081600260008573ffffffffffffffffffffffffffffffffffffffff1673ffffffffffffffffffffffffffffffffffffffff16815260200190815260200160002060008282546121729190614051565b925050819055508273ffffffffffffffffffffffffffffffffffffffff168473ffffffffffffffffffffffffffffffffffffffff167fddf252ad1be2c89b69c2b068fc378daa952ba7f163c4a11628f55a4df523b3ef846040516121d69190613505565b60405180910390a36121e9848484612968565b50505050565b6008600083815260200190815260200160002060008273ffffffffffffffffffffffffffffffffffffffff1673ffffffffffffffffffffffffffffffffffffffff16815260200190815260200160002060009054906101000a900460ff166122dc576122728173ffffffffffffffffffffffffffffffffffffffff16601461296d565b6122808360001c602061296d565b6040516020016122919291906149db565b6040516020818303038152906040526040517f08c379a00000000000000000000000000000000000000000000000000000000081526004016122d39190613389565b60405180910390fd5b5050565b600073ffffffffffffffffffffffffffffffffffffffff168273ffffffffffffffffffffffffffffffffffffffff160361234f576040517f08c379a000000000000000000000000000000000000000000000000000000000815260040161234690614a61565b60405180910390fd5b61235b60008383612963565b806004600082825461236d9190614051565b9250508190555080600260008473ffffffffffffffffffffffffffffffffffffffff1673ffffffffffffffffffffffffffffffffffffffff16815260200190815260200160002060008282546123c39190614051565b925050819055508173ffffffffffffffffffffffffffffffffffffffff16600073ffffffffffffffffffffffffffffffffffffffff167fddf252ad1be2c89b69c2b068fc378daa952ba7f163c4a11628f55a4df523b3ef836040516124289190613505565b60405180910390a361243c60008383612968565b5050565b61244a8282612ba9565b6124548282612c71565b5050565b60007f8b73c3c69bb8fe3d512ecc4cf759cc79239f7b179b0ffacaa9a75d522b39400f612483610763565b805190602001207fc89efdaa54c0f20c7adf612882df0950f5a951637e0307cdcb4c672f298b8bc646306040516020016124c1959493929190614a81565b60405160208183030381529060405280519060200120905090565b6124e68282612d7d565b6124f08282612e46565b5050565b600073ffffffffffffffffffffffffffffffffffffffff168273ffffffffffffffffffffffffffffffffffffffff1603612563576040517f08c379a000000000000000000000000000000000000000000000000000000000815260040161255a90614b46565b60405180910390fd5b61256f82600083612963565b6000600260008473ffffffffffffffffffffffffffffffffffffffff1673ffffffffffffffffffffffffffffffffffffffff168152602001908152602001600020549050818110156125f6576040517f08c379a00000000000000000000000000000000000000000000000000000000081526004016125ed90614bd8565b60405180910390fd5b818103600260008573ffffffffffffffffffffffffffffffffffffffff1673ffffffffffffffffffffffffffffffffffffffff16815260200190815260200160002081905550816004600082825461264e9190613e6d565b92505081905550600073ffffffffffffffffffffffffffffffffffffffff168373ffffffffffffffffffffffffffffffffffffffff167fddf252ad1be2c89b69c2b068fc378daa952ba7f163c4a11628f55a4df523b3ef846040516126b39190613505565b60405180910390a36126c783600084612968565b505050565b60006126d66111a2565b73ffffffffffffffffffffffffffffffffffffffff163373ffffffffffffffffffffffffffffffffffffffff1614905090565b60006127136111a2565b73ffffffffffffffffffffffffffffffffffffffff163373ffffffffffffffffffffffffffffffffffffffff1614905090565b600081600001549050919050565b600061275e6111a2565b73ffffffffffffffffffffffffffffffffffffffff163373ffffffffffffffffffffffffffffffffffffffff1614905090565b600080805461279f90613dad565b80601f01602080910402602001604051908101604052809291908181526020018280546127cb90613dad565b80156128185780601f106127ed57610100808354040283529160200191612818565b820191906000526020600020905b8154815290600101906020018083116127fb57829003601f168201915b50505050509050816000908161282e9190614da4565b507fc9c7c3fe08b88b4df9d4d47ef47d2c43d55c025a0ba88ca442580ed9e7348a168183604051612860929190614e76565b60405180910390a15050565b6060612891838360405180606001604052806027815260200161524860279139612f44565b905092915050565b600080600760008473ffffffffffffffffffffffffffffffffffffffff1673ffffffffffffffffffffffffffffffffffffffff16815260200190815260200160002090506128e681612746565b91506128f181613011565b50919050565b60006040517f190100000000000000000000000000000000000000000000000000000000000081528360028201528260228201526042812091505092915050565b600080600061294987878787613027565b9150915061295681613109565b8192505050949350505050565b505050565b505050565b6060600060028360026129809190614ead565b61298a9190614051565b67ffffffffffffffff8111156129a3576129a2613718565b5b6040519080825280601f01601f1916602001820160405280156129d55781602001600182028036833780820191505090505b5090507f300000000000000000000000000000000000000000000000000000000000000081600081518110612a0d57612a0c61430d565b5b60200101907effffffffffffffffffffffffffffffffffffffffffffffffffffffffffffff1916908160001a9053507f780000000000000000000000000000000000000000000000000000000000000081600181518110612a7157612a7061430d565b5b60200101907effffffffffffffffffffffffffffffffffffffffffffffffffffffffffffff1916908160001a90535060006001846002612ab19190614ead565b612abb9190614051565b90505b6001811115612b5b577f3031323334353637383961626364656600000000000000000000000000000000600f861660108110612afd57612afc61430d565b5b1a60f81b828281518110612b1457612b1361430d565b5b60200101907effffffffffffffffffffffffffffffffffffffffffffffffffffffffffffff1916908160001a905350600485901c945080612b5490614eef565b9050612abe565b5060008414612b9f576040517f08c379a0000000000000000000000000000000000000000000000000000000008152600401612b9690614f64565b60405180910390fd5b8091505092915050565b60016008600084815260200190815260200160002060008373ffffffffffffffffffffffffffffffffffffffff1673ffffffffffffffffffffffffffffffffffffffff16815260200190815260200160002060006101000a81548160ff0219169083151502179055503373ffffffffffffffffffffffffffffffffffffffff168173ffffffffffffffffffffffffffffffffffffffff16837f2f8788117e7eff1d82e926ec794901d17c78024a50270940304540a733656f0d60405160405180910390a45050565b6000600a60008481526020019081526020016000206000015490506001600a60008581526020019081526020016000206000016000828254612cb39190614051565b9250508190555081600a6000858152602001908152602001600020600101600083815260200190815260200160002060006101000a81548173ffffffffffffffffffffffffffffffffffffffff021916908373ffffffffffffffffffffffffffffffffffffffff16021790555080600a600085815260200190815260200160002060020160008473ffffffffffffffffffffffffffffffffffffffff1673ffffffffffffffffffffffffffffffffffffffff16815260200190815260200160002081905550505050565b612d8782826121ef565b6008600083815260200190815260200160002060008273ffffffffffffffffffffffffffffffffffffffff1673ffffffffffffffffffffffffffffffffffffffff16815260200190815260200160002060006101000a81549060ff02191690553373ffffffffffffffffffffffffffffffffffffffff168173ffffffffffffffffffffffffffffffffffffffff16837ff6391f5c32d9c69d2a47ea670b442974b53935d1edc7fd64eb21e047a839171b60405160405180910390a45050565b6000600a600084815260200190815260200160002060020160008373ffffffffffffffffffffffffffffffffffffffff1673ffffffffffffffffffffffffffffffffffffffff168152602001908152602001600020549050600a6000848152602001908152602001600020600101600082815260200190815260200160002060006101000a81549073ffffffffffffffffffffffffffffffffffffffff0219169055600a600084815260200190815260200160002060020160008373ffffffffffffffffffffffffffffffffffffffff1673ffffffffffffffffffffffffffffffffffffffff16815260200190815260200160002060009055505050565b6060612f4f8461326f565b612f8e576040517f08c379a0000000000000000000000000000000000000000000000000000000008152600401612f8590614ff6565b60405180910390fd5b6000808573ffffffffffffffffffffffffffffffffffffffff1685604051612fb69190615052565b600060405180830381855af49150503d8060008114612ff1576040519150601f19603f3d011682016040523d82523d6000602084013e612ff6565b606091505b5091509150613006828286613292565b925050509392505050565b6001816000016000828254019250508190555050565b6000807f7fffffffffffffffffffffffffffffff5d576e7357a4501ddfe92f46681b20a08360001c1115613062576000600391509150613100565b6000600187878787604051600081526020016040526040516130879493929190615069565b6020604051602081039080840390855afa1580156130a9573d6000803e3d6000fd5b505050602060405103519050600073ffffffffffffffffffffffffffffffffffffffff168173ffffffffffffffffffffffffffffffffffffffff16036130f757600060019250925050613100565b80600092509250505b94509492505050565b6000600481111561311d5761311c6150ae565b5b8160048111156131305761312f6150ae565b5b031561326c576001600481111561314a576131496150ae565b5b81600481111561315d5761315c6150ae565b5b0361319d576040517f08c379a000000000000000000000000000000000000000000000000000000000815260040161319490615129565b60405180910390fd5b600260048111156131b1576131b06150ae565b5b8160048111156131c4576131c36150ae565b5b03613204576040517f08c379a00000000000000000000000000000000000000000000000000000000081526004016131fb90615195565b60405180910390fd5b60036004811115613218576132176150ae565b5b81600481111561322b5761322a6150ae565b5b0361326b576040517f08c379a000000000000000000000000000000000000000000000000000000000815260040161326290615227565b60405180910390fd5b5b50565b6000808273ffffffffffffffffffffffffffffffffffffffff163b119050919050565b606083156132a2578290506132f2565b6000835111156132b55782518084602001fd5b816040517f08c379a00000000000000000000000000000000000000000000000000000000081526004016132e99190613389565b60405180910390fd5b9392505050565b600081519050919050565b600082825260208201905092915050565b60005b83811015613333578082015181840152602081019050613318565b60008484015250505050565b6000601f19601f8301169050919050565b600061335b826132f9565b6133658185613304565b9350613375818560208601613315565b61337e8161333f565b840191505092915050565b600060208201905081810360008301526133a38184613350565b905092915050565b6000604051905090565b600080fd5b600080fd5b600073ffffffffffffffffffffffffffffffffffffffff82169050919050565b60006133ea826133bf565b9050919050565b6133fa816133df565b811461340557600080fd5b50565b600081359050613417816133f1565b92915050565b6000819050919050565b6134308161341d565b811461343b57600080fd5b50565b60008135905061344d81613427565b92915050565b6000806040838503121561346a576134696133b5565b5b600061347885828601613408565b92505060206134898582860161343e565b9150509250929050565b60008115159050919050565b6134a881613493565b82525050565b60006020820190506134c3600083018461349f565b92915050565b6000602082840312156134df576134de6133b5565b5b60006134ed84828501613408565b91505092915050565b6134ff8161341d565b82525050565b600060208201905061351a60008301846134f6565b92915050565b6000819050919050565b61353381613520565b82525050565b600060208201905061354e600083018461352a565b92915050565b60008060006060848603121561356d5761356c6133b5565b5b600061357b86828701613408565b935050602061358c86828701613408565b925050604061359d8682870161343e565b9150509250925092565b6135b081613520565b81146135bb57600080fd5b50565b6000813590506135cd816135a7565b92915050565b6000602082840312156135e9576135e86133b5565b5b60006135f7848285016135be565b91505092915050565b60008060408385031215613617576136166133b5565b5b6000613625858286016135be565b925050602061363685828601613408565b9150509250929050565b600060ff82169050919050565b61365681613640565b82525050565b6000602082019050613671600083018461364d565b92915050565b60006020828403121561368d5761368c6133b5565b5b600061369b8482850161343e565b91505092915050565b6136ad816133df565b82525050565b60006020820190506136c860008301846136a4565b92915050565b600080604083850312156136e5576136e46133b5565b5b60006136f3858286016135be565b92505060206137048582860161343e565b9150509250929050565b600080fd5b600080fd5b7f4e487b7100000000000000000000000000000000000000000000000000000000600052604160045260246000fd5b6137508261333f565b810181811067ffffffffffffffff8211171561376f5761376e613718565b5b80604052505050565b60006137826133ab565b905061378e8282613747565b919050565b600067ffffffffffffffff8211156137ae576137ad613718565b5b6137b78261333f565b9050602081019050919050565b82818337600083830152505050565b60006137e66137e184613793565b613778565b90508281526020810184848401111561380257613801613713565b5b61380d8482856137c4565b509392505050565b600082601f83011261382a5761382961370e565b5b813561383a8482602086016137d3565b91505092915050565b600060208284031215613859576138586133b5565b5b600082013567ffffffffffffffff811115613877576138766133ba565b5b61388384828501613815565b91505092915050565b600067ffffffffffffffff8211156138a7576138a6613718565b5b602082029050602081019050919050565b600080fd5b60006138d06138cb8461388c565b613778565b905080838252602082019050602084028301858111156138f3576138f26138b8565b5b835b8181101561391c57806139088882613408565b8452602084019350506020810190506138f5565b5050509392505050565b600082601f83011261393b5761393a61370e565b5b813561394b8482602086016138bd565b91505092915050565b600067ffffffffffffffff82111561396f5761396e613718565b5b602082029050602081019050919050565b600061399361398e84613954565b613778565b905080838252602082019050602084028301858111156139b6576139b56138b8565b5b835b818110156139df57806139cb888261343e565b8452602084019350506020810190506139b8565b5050509392505050565b600082601f8301126139fe576139fd61370e565b5b8135613a0e848260208601613980565b91505092915050565b60008060408385031215613a2e57613a2d6133b5565b5b600083013567ffffffffffffffff811115613a4c57613a4b6133ba565b5b613a5885828601613926565b925050602083013567ffffffffffffffff811115613a7957613a786133ba565b5b613a85858286016139e9565b9150509250929050565b600080fd5b60008083601f840112613aaa57613aa961370e565b5b8235905067ffffffffffffffff811115613ac757613ac6613a8f565b5b602083019150836020820283011115613ae357613ae26138b8565b5b9250929050565b60008060208385031215613b0157613b006133b5565b5b600083013567ffffffffffffffff811115613b1f57613b1e6133ba565b5b613b2b85828601613a94565b92509250509250929050565b600081519050919050565b600082825260208201905092915050565b6000819050602082019050919050565b600081519050919050565b600082825260208201905092915050565b6000613b8a82613b63565b613b948185613b6e565b9350613ba4818560208601613315565b613bad8161333f565b840191505092915050565b6000613bc48383613b7f565b905092915050565b6000602082019050919050565b6000613be482613b37565b613bee8185613b42565b935083602082028501613c0085613b53565b8060005b85811015613c3c5784840389528151613c1d8582613bb8565b9450613c2883613bcc565b925060208a01995050600181019050613c04565b50829750879550505050505092915050565b60006020820190508181036000830152613c688184613bd9565b905092915050565b613c7981613640565b8114613c8457600080fd5b50565b600081359050613c9681613c70565b92915050565b600080600080600080600060e0888a031215613cbb57613cba6133b5565b5b6000613cc98a828b01613408565b9750506020613cda8a828b01613408565b9650506040613ceb8a828b0161343e565b9550506060613cfc8a828b0161343e565b9450506080613d0d8a828b01613c87565b93505060a0613d1e8a828b016135be565b92505060c0613d2f8a828b016135be565b91505092959891949750929550565b60008060408385031215613d5557613d546133b5565b5b6000613d6385828601613408565b9250506020613d7485828601613408565b9150509250929050565b7f4e487b7100000000000000000000000000000000000000000000000000000000600052602260045260246000fd5b60006002820490506001821680613dc557607f821691505b602082108103613dd857613dd7613d7e565b5b50919050565b7f4e487b7100000000000000000000000000000000000000000000000000000000600052601260045260246000fd5b7f4e487b7100000000000000000000000000000000000000000000000000000000600052601160045260246000fd5b6000613e478261341d565b9150613e528361341d565b925082613e6257613e61613dde565b5b828204905092915050565b6000613e788261341d565b9150613e838361341d565b9250828203905081811115613e9b57613e9a613e0d565b5b92915050565b7f4e6f7420617574686f72697a6564000000000000000000000000000000000000600082015250565b6000613ed7600e83613304565b9150613ee282613ea1565b602082019050919050565b60006020820190508181036000830152613f0681613eca565b9050919050565b7f4d696e74696e67207a65726f20746f6b656e732e000000000000000000000000600082015250565b6000613f43601483613304565b9150613f4e82613f0d565b602082019050919050565b60006020820190508181036000830152613f7281613f36565b9050919050565b7f45786365656473206461696c79206d696e74206c696d69740000000000000000600082015250565b6000613faf601883613304565b9150613fba82613f79565b602082019050919050565b60006020820190508181036000830152613fde81613fa2565b9050919050565b7f43616e6e6f74206d696e7420746f2073656c662e000000000000000000000000600082015250565b600061401b601483613304565b915061402682613fe5565b602082019050919050565b6000602082019050818103600083015261404a8161400e565b9050919050565b600061405c8261341d565b91506140678361341d565b925082820190508082111561407f5761407e613e0d565b5b92915050565b7f43616e206f6e6c79206772616e7420746f206e6f6e20686f6c64657273000000600082015250565b60006140bb601d83613304565b91506140c682614085565b602082019050919050565b600060208201905081810360008301526140ea816140ae565b9050919050565b7f43616e206f6e6c792072656e6f756e636520666f722073656c66000000000000600082015250565b6000614127601a83613304565b9150614132826140f1565b602082019050919050565b600060208201905081810360008301526141568161411a565b9050919050565b7f6e6f7420656e6f7567682062616c616e63650000000000000000000000000000600082015250565b6000614193601283613304565b915061419e8261415d565b602082019050919050565b600060208201905081810360008301526141c281614186565b9050919050565b7f4e6f7420617574686f72697a656420746f206d696e742e000000000000000000600082015250565b60006141ff601783613304565b915061420a826141c9565b602082019050919050565b6000602082019050818103600083015261422e816141f2565b9050919050565b7f4e6f7420617574686f72697a656420746f206275726e2e000000000000000000600082015250565b600061426b601783613304565b915061427682614235565b602082019050919050565b6000602082019050818103600083015261429a8161425e565b9050919050565b7f4172726179206c656e6774687320646f206e6f74206d617463682e0000000000600082015250565b60006142d7601b83613304565b91506142e2826142a1565b602082019050919050565b60006020820190508181036000830152614306816142ca565b9050919050565b7f4e487b7100000000000000000000000000000000000000000000000000000000600052603260045260246000fd5b60006143478261341d565b91507fffffffffffffffffffffffffffffffffffffffffffffffffffffffffffffffff820361437957614378613e0d565b5b600182019050919050565b7f45524332303a2064656372656173656420616c6c6f77616e63652062656c6f7760008201527f207a65726f000000000000000000000000000000000000000000000000000000602082015250565b60006143e0602583613304565b91506143eb82614384565b604082019050919050565b6000602082019050818103600083015261440f816143d3565b9050919050565b600080fd5b600080fd5b600080fd5b6000808335600160200384360303811261444257614441614416565b5b80840192508235915067ffffffffffffffff8211156144645761446361441b565b5b6020830192506001820236038313156144805761447f614420565b5b509250929050565b7f45524332305065726d69743a206578706972656420646561646c696e65000000600082015250565b60006144be601d83613304565b91506144c982614488565b602082019050919050565b600060208201905081810360008301526144ed816144b1565b9050919050565b600060c082019050614509600083018961352a565b61451660208301886136a4565b61452360408301876136a4565b61453060608301866134f6565b61453d60808301856134f6565b61454a60a08301846134f6565b979650505050505050565b7f45524332305065726d69743a20696e76616c6964207369676e61747572650000600082015250565b600061458b601e83613304565b915061459682614555565b602082019050919050565b600060208201905081810360008301526145ba8161457e565b9050919050565b7f45524332303a20617070726f76652066726f6d20746865207a65726f2061646460008201527f7265737300000000000000000000000000000000000000000000000000000000602082015250565b600061461d602483613304565b9150614628826145c1565b604082019050919050565b6000602082019050818103600083015261464c81614610565b9050919050565b7f45524332303a20617070726f766520746f20746865207a65726f20616464726560008201527f7373000000000000000000000000000000000000000000000000000000000000602082015250565b60006146af602283613304565b91506146ba82614653565b604082019050919050565b600060208201905081810360008301526146de816146a2565b9050919050565b7f45524332303a20696e73756666696369656e7420616c6c6f77616e6365000000600082015250565b600061471b601d83613304565b9150614726826146e5565b602082019050919050565b6000602082019050818103600083015261474a8161470e565b9050919050565b7f45524332303a207472616e736665722066726f6d20746865207a65726f20616460008201527f6472657373000000000000000000000000000000000000000000000000000000602082015250565b60006147ad602583613304565b91506147b882614751565b604082019050919050565b600060208201905081810360008301526147dc816147a0565b9050919050565b7f45524332303a207472616e7366657220746f20746865207a65726f206164647260008201527f6573730000000000000000000000000000000000000000000000000000000000602082015250565b600061483f602383613304565b915061484a826147e3565b604082019050919050565b6000602082019050818103600083015261486e81614832565b9050919050565b7f45524332303a207472616e7366657220616d6f756e742065786365656473206260008201527f616c616e63650000000000000000000000000000000000000000000000000000602082015250565b60006148d1602683613304565b91506148dc82614875565b604082019050919050565b60006020820190508181036000830152614900816148c4565b9050919050565b600081905092915050565b7f5065726d697373696f6e733a206163636f756e74200000000000000000000000600082015250565b6000614948601583614907565b915061495382614912565b601582019050919050565b6000614969826132f9565b6149738185614907565b9350614983818560208601613315565b80840191505092915050565b7f206973206d697373696e6720726f6c6520000000000000000000000000000000600082015250565b60006149c5601183614907565b91506149d08261498f565b601182019050919050565b60006149e68261493b565b91506149f2828561495e565b91506149fd826149b8565b9150614a09828461495e565b91508190509392505050565b7f45524332303a206d696e7420746f20746865207a65726f206164647265737300600082015250565b6000614a4b601f83613304565b9150614a5682614a15565b602082019050919050565b60006020820190508181036000830152614a7a81614a3e565b9050919050565b600060a082019050614a96600083018861352a565b614aa3602083018761352a565b614ab0604083018661352a565b614abd60608301856134f6565b614aca60808301846136a4565b9695505050505050565b7f45524332303a206275726e2066726f6d20746865207a65726f2061646472657360008201527f7300000000000000000000000000000000000000000000000000000000000000602082015250565b6000614b30602183613304565b9150614b3b82614ad4565b604082019050919050565b60006020820190508181036000830152614b5f81614b23565b9050919050565b7f45524332303a206275726e20616d6f756e7420657863656564732062616c616e60008201527f6365000000000000000000000000000000000000000000000000000000000000602082015250565b6000614bc2602283613304565b9150614bcd82614b66565b604082019050919050565b60006020820190508181036000830152614bf181614bb5565b9050919050565b60008190508160005260206000209050919050565b60006020601f8301049050919050565b600082821b905092915050565b600060088302614c5a7fffffffffffffffffffffffffffffffffffffffffffffffffffffffffffffffff82614c1d565b614c648683614c1d565b95508019841693508086168417925050509392505050565b6000819050919050565b6000614ca1614c9c614c978461341d565b614c7c565b61341d565b9050919050565b6000819050919050565b614cbb83614c86565b614ccf614cc782614ca8565b848454614c2a565b825550505050565b600090565b614ce4614cd7565b614cef818484614cb2565b505050565b5b81811015614d1357614d08600082614cdc565b600181019050614cf5565b5050565b601f821115614d5857614d2981614bf8565b614d3284614c0d565b81016020851015614d41578190505b614d55614d4d85614c0d565b830182614cf4565b50505b505050565b600082821c905092915050565b6000614d7b60001984600802614d5d565b1980831691505092915050565b6000614d948383614d6a565b9150826002028217905092915050565b614dad826132f9565b67ffffffffffffffff811115614dc657614dc5613718565b5b614dd08254613dad565b614ddb828285614d17565b600060209050601f831160018114614e0e5760008415614dfc578287015190505b614e068582614d88565b865550614e6e565b601f198416614e1c86614bf8565b60005b82811015614e4457848901518255600182019150602085019450602081019050614e1f565b86831015614e615784890151614e5d601f891682614d6a565b8355505b6001600288020188555050505b505050505050565b60006040820190508181036000830152614e908185613350565b90508181036020830152614ea48184613350565b90509392505050565b6000614eb88261341d565b9150614ec38361341d565b9250828202614ed18161341d565b91508282048414831517614ee857614ee7613e0d565b5b5092915050565b6000614efa8261341d565b915060008203614f0d57614f0c613e0d565b5b600182039050919050565b7f537472696e67733a20686578206c656e67746820696e73756666696369656e74600082015250565b6000614f4e602083613304565b9150614f5982614f18565b602082019050919050565b60006020820190508181036000830152614f7d81614f41565b9050919050565b7f416464726573733a2064656c65676174652063616c6c20746f206e6f6e2d636f60008201527f6e74726163740000000000000000000000000000000000000000000000000000602082015250565b6000614fe0602683613304565b9150614feb82614f84565b604082019050919050565b6000602082019050818103600083015261500f81614fd3565b9050919050565b600081905092915050565b600061502c82613b63565b6150368185615016565b9350615046818560208601613315565b80840191505092915050565b600061505e8284615021565b915081905092915050565b600060808201905061507e600083018761352a565b61508b602083018661364d565b615098604083018561352a565b6150a5606083018461352a565b95945050505050565b7f4e487b7100000000000000000000000000000000000000000000000000000000600052602160045260246000fd5b7f45434453413a20696e76616c6964207369676e61747572650000000000000000600082015250565b6000615113601883613304565b915061511e826150dd565b602082019050919050565b6000602082019050818103600083015261514281615106565b9050919050565b7f45434453413a20696e76616c6964207369676e6174757265206c656e67746800600082015250565b600061517f601f83613304565b915061518a82615149565b602082019050919050565b600060208201905081810360008301526151ae81615172565b9050919050565b7f45434453413a20696e76616c6964207369676e6174757265202773272076616c60008201527f7565000000000000000000000000000000000000000000000000000000000000602082015250565b6000615211602283613304565b915061521c826151b5565b604082019050919050565b6000602082019050818103600083015261524081615204565b905091905056fe416464726573733a206c6f772d6c6576656c2064656c65676174652063616c6c206661696c6564a2646970667358221220bef1e0165e09dd7f504d86157426a4dca3132ee04e079e3020667fbee305411564736f6c63430008130033",
  "linkReferences": {},
  "deployedLinkReferences": {}
}